:020000040800F2
:1000000040070020CD010008752600084D22000899
:1000100071260008D50200082D30000800000000FD
:10002000000000000000000000000000792C000823
:100030000103000800000000112A0008D12C00086C
:10004000E7010008E7010008E7010008E7010008F0
:10005000E7010008E7010008E7010008E7010008E0
:10006000E7010008E701000805030008E7010008B0
:10007000E7010008E7010008E7010008E7010008C0
:10008000E7010008E7010008E7010008E7010008B0
:10009000E7010008E7010008E7010008E7010008A0
:1000A000E7010008E7010008E7010008E701000890
:1000B000E7010008E7010008E7010008E701000880
:1000C000E7010008E7010008E7010008E701000870
:1000D000E7010008E7010008E7010008E701000860
:1000E000E7010008E7010008E7010008E701000850
:1000F000E7010008E7010008E7010008E701000840
:10010000E7010008E7010008E7010008E70100082F
:10011000E7010008E7010008492D0008E701000891
:10012000E7010008E7010008E7010008E70100080F
:1001300000F002F800F03AF80AA090E8000C8244BF
:100140008344AAF10107DA4501D100F02FF8AFF29C
:10015000090EBAE80F0013F0010F18BFFB1A43F0A5
:1001600001031847D0410000F0410000103A24BFBD
:1001700078C878C1FAD8520724BF30C830C144BF0C
:1001800004680C607047000000230024002500264E
:10019000103A28BF78C1FBD8520728BF30C148BFEA
:1001A0000B6070471FB51FBD10B510BD00F058F8AB
:1001B0001146FFF7F7FF03F0CDF800F076F803B42F
:1001C000FFF7F2FF03BC00F07DF80000094880470C
:1001D00009480047FEE7FEE7FEE7FEE7FEE7FEE729
:1001E000FEE7FEE7FEE7FEE704480549054A064B41
:1001F00070470000452D0008310100084001002033
:100200004007002040030020400300204FF0000280
:1002100000B5134694469646203922BFA0E80C50FC
:10022000A0E80C50B1F12001BFF4F7AF090728BFD7
:10023000A0E80C5048BF0CC05DF804EB890028BF53
:1002400040F8042B08BF704748BF20F8022B11F07C
:10025000804F18BF00F8012B7047704770477047F8
:10026000754600F02BF8AE4605006946534620F06F
:100270000700854618B020B5FFF7B6FFBDE820405F
:100280004FF000064FF000074FF000084FF0000B52
:10029000AC46ACE8C009ACE8C009ACE8C009ACE8C1
:1002A000C00921F007018D46704710B50446AFF331
:1002B00000802046BDE81040FFF781BF004870472E
:1002C0001000002001491820ABBEFEE72600020006
:1002D00070470000FFE7FEE781B000909DF8000046
:1002E00041F21041C4F2010108609DF8000080F065
:1002F000FF0041F21441C4F20101086001B07047EF
:100300007047000080B5102000F032F880BD00007A
:1003100081B0EFF3108072B60090FFE7FEE70000B7
:1003200080B584B0039000F01BFA0290039801900E
:100330000198013048B1FFE740F20400C2F200002A
:100340000178019808440190FFE7FFE700F008FA00
:100350000299401A0199884201D2FFE7F6E704B0FA
:1003600080BD000081B0ADF8020001B07047000010
:1003700080B582B0ADF8060040F21440C4F201002E
:100380000068BDF8061008420CD0FFE7BDF8060073
:1003900040F21441C4F201010860BDF80600FFF705
:1003A000E1FFFFE702B080BD92B0119010910020F4
:1003B0000F900B90FFE7109800680F99C840002835
:1003C00000F09B81FFE70F99012088400E90109864
:1003D00000680E9908400D900D980E99884240F0E3
:1003E0008881FFE7109840680790002851D0FFE708
:1003F000079801283AD0FFE7079802283FD0FFE787
:10040000079803285FD0FFE70798112832D0FFE74D
:100410000798122838D0FFE707980021C1F2110190
:10042000884236D0FFE707980021C1F212018842C6
:100430002FD0FFE707980021C1F22101884228D080
:10044000FFE707980021C1F22201884221D0FFE78F
:1004500007980021C1F2310188421AD0FFE70798BE
:100460000021C1F23201884213D02FE01098C068F9
:100470000B902CE01098C06804300B9027E0109887
:10048000C06808300B9022E01098C0680C300B90C8
:100490001DE01098806818B9FFE704200B9011E068
:1004A00010988068012806D1FFE708200B900E986D
:1004B0001199086105E008200B900E981199486188
:1004C000FFE7FFE703E000200B9000E0FFE70D9857
:1004D000FF2803D8FFE71198069003E01198043035
:1004E0000690FFE706980A900D98FF2804D8FFE7CA
:1004F0000F988000059006E00F996FF01F0000EB49
:1005000081000590FFE7059809900A980068099A0C
:100510000F21914088430B99914008430A99086044
:100520001098C079C006002840F1E280FFE7FFE79D
:1005300041F21800C4F20200016841F001010160BB
:10054000006800F0010008900898FFE70F9820F07D
:1005500003000821C4F2010140580C900F9800F0EC
:10056000030081000F2000FA01F10C9888430C90E1
:10057000119840F60001C4F20101884203D1FFE75F
:100580000020049042E0119840F60041C4F20101BD
:10059000884203D1FFE70120039034E0119841F233
:1005A0000001C4F20101884203D1FFE7022002905A
:1005B00026E0119841F20041C4F20101884203D1C2
:1005C000FFE70320019018E0119841F60001C4F202
:1005D0000101884203D1FFE7042000900AE011994D
:1005E00041F60042C4F201020620914208BF0520F4
:1005F0000090FFE700980190FFE701980290FFE765
:1006000002980390FFE703980490FFE704980F997E
:1006100001F00301890000FA01F10C9808430C90E5
:100620000C980F9921F003010822C4F201028850AE
:1006300010988079C00748B1FFE70D9A40F2004159
:10064000C4F2010108681043086008E00D9A40F206
:100650000041C4F20101086890430860FFE7109868
:1006600080798007002809D5FFE70D9A40F2044100
:10067000C4F2010108681043086008E00D9A40F2D6
:100680000441C4F20101086890430860FFE7109834
:100690008079C006002809D5FFE70D9A40F208418D
:1006A000C4F2010108681043086008E00D9A40F2A6
:1006B0000841C4F20101086890430860FFE7109800
:1006C00080798006002809D5FFE70D9A40F20C4199
:1006D000C4F2010108681043086008E00D9A40F276
:1006E0000C41C4F20101086890430860FFE7FFE78E
:1006F000FFE70F9801300F905DE612B070470000E1
:1007000082B00190ADF8021001988068BDF8021027
:10071000084204D0FFE701208DF8010003E000202B
:100720008DF80100FFE79DF8010002B0704700005E
:1007300082B00190ADF802108DF801209DF8010003
:1007400028B1FFE7BDF802000199086105E0BDF896
:100750000200000401990861FFE702B07047000041
:1007600040F23810C2F200000068704740F2040006
:10077000C2F20000027840F23811C2F200010868AB
:10078000104408607047000080B542F20001C4F2D6
:100790000201086840F010000860032000F096F89D
:1007A0000F2000F005F800F03BF8002080BD0000AD
:1007B00080B582B0009040F20000C2F200000068F4
:1007C00040F20401C2F200010A784FF47A71B1FBE1
:1007D000F2F1B0FBF1F001F031FA20B1FFE70120B6
:1007E0008DF8070018E000980F280DD8FFE7009952
:1007F0004FF0FF30002200F04FF8009840F208015F
:10080000C2F20001086003E001208DF8070003E058
:1008100000208DF80700FFE79DF8070002B080BDBB
:1008200083B0FFE741F21800C4F20200016841F012
:1008300001010160006800F0010002900298FFE7EA
:10084000FFE741F21C00C4F20200016841F0805150
:100850000160006800F0805001900198FFE7FFE719
:100860000421C4F2010108680090009820F0E060C3
:100870000090009840F00070009000980860FFE73A
:1008800003B0704780B582B08DF807009DF907006E
:1008900002F0D8FC02B080BD80B586B08DF817009C
:1008A000049103920020029002F0E4FC02909DF972
:1008B0001700019002980499039A01F0DDFE0146A9
:1008C000019802F0DFFC06B080BD000080B582B068
:1008D0000190019802F0F8FC02B080BD80B584B0B0
:1008E00002900191029820B9FFE701208DF80F00D6
:1008F0001BE1019842F20001C4F20201096801F013
:100900000701884216D9FFE742F20000C4F2020054
:10091000016821F00701019A11430160006800F0AD
:1009200007000199884204D0FFE701208DF80F00ED
:10093000FBE0FFE702980078800700282AD5FFE750
:10094000029800784007002809D5FFE741F204012A
:10095000C4F20201086840F4E0600860FFE7029812
:1009600000780007002809D5FFE741F20401C4F22E
:100970000201086840F460500860FFE741F204019A
:10098000C4F20201086820F0F000029A9268104355
:100990000860FFE702980078C007002860D0FFE7F2
:1009A0000298406801280ED1FFE741F20000C4F22E
:1009B000020000688003002804D4FFE701208DF8BE
:1009C0000F00B2E021E00298406802280ED1FFE754
:1009D00041F20000C4F2020000688001002804D443
:1009E000FFE701208DF80F009FE00DE041F20000CD
:1009F000C4F2020000688007002804D4FFE7012049
:100A00008DF80F0091E0FFE7FFE741F20401C4F227
:100A10000201086820F00300029A5268104308603F
:100A2000FFF79EFE0090FFE741F20400C4F20200CF
:100A3000006800F00C0002994968B0EB810F0ED0FD
:100A4000FFE7FFF78DFE0099401A41F28931884295
:100A500004D3FFE703208DF80F0066E0E4E7FFE72B
:100A6000019842F20001C4F20201096801F0070195
:100A7000884216D2FFE742F20000C4F20200016889
:100A800021F00701019A11430160006800F007009E
:100A90000199884204D0FFE701208DF80F0044E05F
:100AA000FFE702980078400700280CD5FFE741F2E5
:100AB0000401C4F20201086820F4E060029AD268DE
:100AC00010430860FFE702980078000700280DD562
:100AD000FFE741F20401C4F20201086820F460500B
:100AE000029A126940EAC2000860FFE700F022F8AB
:100AF00041F20401C4F202010968C9B20A0943F6CD
:100B00009221C0F60001895CC84040F20001C2F2A7
:100B10000001086040F20800C2F200000068FFF720
:100B200047FE00208DF80F00FFE79DF80F0004B08E
:100B300080BD00008BB040F60E70C1F210000A902C
:100B400040F60A30C0F60C50099040F20670C0F62C
:100B50000810089040F20230C0F20450079040F2B2
:100B60000120ADF81A000020059004900390029037
:100B7000019041F20400C4F202000068059005985B
:100B800000F00C0001460091E0B3FFE70098042854
:100B900004D0FFE70098082806D034E041F2002096
:100BA000C0F27A00019034E00598C0F3834107A8B1
:100BB000405C02909DF81600C007C0B1FFE741F20B
:100BC0000400C4F20200006800F400310DF11A00C4
:100BD00040EA514000780490029841F20021C0F2AE
:100BE0007A0148430499B0FBF1F0039007E00298C2
:100BF00040F60011C0F23D0148430390FFE703981F
:100C0000019006E0FFE741F20020C0F27A00019077
:100C1000FFE701980BB0704780B586B00490049848
:100C200020B9FFE701208DF817002EE30498007823
:100C3000C007002800F0AE80FFE741F20400C4F2D4
:100C40000200006800F00C00042813D0FFE741F216
:100C50000400C4F20200006800F00C0008281BD158
:100C6000FFE741F20400C4F202000068C00300285C
:100C700012D5FFE741F20000C4F2020000688003D1
:100C8000002808D5FFE70498406820B9FFE7012055
:100C90008DF81700F9E27CE0FFE704984068B0F5B2
:100CA000803F09D1FFE741F20001C4F20201086868
:100CB00040F48030086032E00498406868B9FFE78B
:100CC00041F20001C4F20201086820F4803008609B
:100CD000086820F48020086020E004984068B0F59F
:100CE000A02F0DD1FFE741F20001C4F20201086814
:100CF00040F480200860086840F4803008600CE010
:100D000041F20001C4F20201086820F4803008605A
:100D1000086820F480200860FFE7FFE7FFE7FFE7AF
:100D200004984068D0B1FFE7FFF71AFD0390FFE792
:100D300041F20000C4F202000068800300280CD4D5
:100D4000FFE7FFF70DFD0399401A652804D3FFE77D
:100D500003208DF8170098E2EAE719E0FFF700FD9D
:100D60000390FFE741F20000C4F202000068800334
:100D700000280CD5FFE7FFF7F3FC0399401A65281C
:100D800004D3FFE703208DF817007EE2EAE7FFE7D0
:100D9000FFE7FFE7049800788007002840F18D8086
:100DA000FFE741F20400C4F20200006810F00C0FEB
:100DB00013D0FFE741F20400C4F20200006800F023
:100DC0000C00082829D1FFE741F20400C4F2020018
:100DD0000068C003002820D4FFE741F20000C4F2FD
:100DE000020000688007002809D5FFE70498006921
:100DF000012804D0FFE701208DF8170045E241F2F9
:100E00000001C4F20201086820F0F800049A526957
:100E100040EAC2000860FFE74EE00498006958B35A
:100E2000FFE70021C4F2422101200860FFF798FC8F
:100E30000390FFE741F20000C4F20200006880075F
:100E400000280CD4FFE7FFF78BFC0399401A032816
:100E500004D3FFE703208DF8170016E2EAE741F21A
:100E60000001C4F20201086820F0F800049A5269F7
:100E700040EAC20008601EE00021C4F242210020C6
:100E80000860FFF76DFC0390FFE741F20000C4F239
:100E900002000068800700280CD5FFE7FFF760FC20
:100EA0000399401A032804D3FFE703208DF81700A5
:100EB000EBE1EAE7FFE7FFE7FFE7049800780007C8
:100EC000002848D5FFE70498806918B3FFE740F28F
:100ED0008041C4F2422101200860FFF741FC0390E9
:100EE000FFE741F22400C4F20200006880070028F6
:100EF0000CD4FFE7FFF734FC0399401A032804D30E
:100F0000FFE703208DF81700BFE1EAE7012001F0B9
:100F100081FD1FE040F28041C4F2422100200860C0
:100F2000FFF71EFC0390FFE741F22400C4F2020029
:100F30000068800700280CD5FFE7FFF711FC039934
:100F4000401A032804D3FFE703208DF817009CE123
:100F5000EAE7FFE7FFE7049800784007002840F140
:100F6000D880FFE700208DF8070041F21C00C4F292
:100F700002000068C000002813D4FFE7FFE741F239
:100F80001C00C4F20200016841F080510160006859
:100F900000F0805000900098FFE701208DF80700D6
:100FA000FFE747F20000C4F200000068C005002817
:100FB00022D4FFE747F20001C4F20001086840F4C0
:100FC00080700860FFF7CCFB0390FFE747F200005A
:100FD000C4F200000068C00500280CD4FFE7FFF74A
:100FE000BFFB0399401A652804D3FFE703208DF85F
:100FF00017004AE1EAE7FFE7FFE70498C068012825
:1010000009D1FFE741F22001C4F20201086840F073
:101010000100086031E00498C06868B9FFE741F258
:101020002001C4F20201086820F00100086008688D
:1010300020F0040008601FE00498C06805280DD166
:10104000FFE741F22001C4F20201086840F0040009
:101050000860086840F0010008600CE041F22001DF
:10106000C4F20201086820F001000860086820F05E
:1010700004000860FFE7FFE7FFE7FFE70498C068A8
:10108000E0B1FFE7FFF76CFB0390FFE741F22000C0
:10109000C4F202000068800700280ED4FFE7FFF7C3
:1010A0005FFB0399401A41F28931884204D3FFE77C
:1010B00003208DF81700E8E0E8E71BE0FFF750FB9E
:1010C0000390FFE741F22000C4F2020000688007AD
:1010D00000280ED5FFE7FFF743FB0399401A41F2C2
:1010E0008931884204D3FFE703208DF81700CCE054
:1010F000E8E7FFE79DF80700012809D1FFE741F283
:101100001C01C4F20201086820F080500860FFE76B
:10111000FFE70498C069002800F0B380FFE741F2C0
:101120000400C4F20200006800F00C00082800F07F
:101130008280FFE70498C06902285CD1FFE7602144
:10114000C4F2422100200860FFF70AFB0390FFE78A
:1011500041F20000C4F202000068800100280CD5B2
:10116000FFE7FFF7FDFA0399401A032804D3FFE7CE
:1011700003208DF8170088E0EAE70498006AB0F5CC
:10118000803F0CD1FFE741F20401C4F2020108687C
:1011900020F40030049A926810430860FFE741F29F
:1011A0000401C4F20201086820F47410049B1A6A56
:1011B0005B6A1A43104308606021C4F24221012097
:1011C0000860FFF7CDFA0390FFE741F20000C4F298
:1011D00002000068800100280CD4FFE7FFF7C0FA86
:1011E0000399401A032804D3FFE703208DF8170062
:1011F0004BE0EAE71EE06021C4F2422100200860D3
:10120000FFF7AEFA0390FFE741F20000C4F20200DC
:101210000068800100280CD5FFE7FFF7A1FA0399C9
:10122000401A032804D3FFE703208DF817002CE0B1
:10123000EAE7FFE724E00498C069012804D1FFE74A
:1012400001208DF8170020E041F20400C4F20200F2
:1012500000680290029800F480300499096A88427C
:1012600008D1FFE7029800F470100499496A884297
:1012700004D0FFE701208DF8170006E0FFE7FFE745
:10128000FFE700208DF81700FFE79DF8170006B074
:1012900080BD000080B584B00290029820B9FFE7BD
:1012A00001208DF80F006DE00298406A60B9FFE7F9
:1012B00002984068B0F5827F01D1FFE703E0029910
:1012C0000020C861FFE705E002990020086102994B
:1012D0004861FFE7029900208862029890F8510067
:1012E00040B9FFE70299002081F85000029800F011
:1012F0004DF8FFE70299022081F851000298016839
:10130000086820F040000860029A01921168506855
:10131000D2F808C0D36800F482700CF4044C604426
:1013200003F400631844136903F00203184453697B
:1013300003F001031844936903F400731844D3695C
:1013400003F038031844136A03F080031843926AC9
:1013500002F40052104308600299488B00F0040028
:101360000968486002980168C86920F40060C86193
:10137000029900204865029A012182F851108DF8E7
:101380000F00FFE79DF80F0004B080BD80B58AB064
:101390000990002008900790069005900998006831
:1013A00043F20001C4F20101884237D1FFE7FFE7B1
:1013B00041F21800C4F20200016841F4805101605A
:1013C000006800F4805004900498FFE7FFE741F2C2
:1013D0001800C4F20200016841F0040101600068D5
:1013E00000F0040003900398FFE7A020059002207E
:1013F00006900320089040F60000C4F2010001901E
:1014000005A90291FEF7D0FF0198029940220592AA
:10141000002206920792FEF7C7FFFFE70AB080BDE1
:1014200080B588B006900591ADF812200393002096
:101430008DF8070006984068B0F5827F16D1FFE767
:101440000698806890B9FFE70699042081F851005A
:101450000698059ABDF812300399EC46CCF80010B6
:10146000114600F037FA8DF81F00EDE0FFE706980F
:1014700090F85000012804D1FFE702208DF81F00EA
:10148000E2E00699012081F85000FFE7FFE7FFF74F
:1014900067F90290069890F85100012804D0FFE700
:1014A00002208DF80700C0E0059820B1FFE7BDF8E5
:1014B000120020B9FFE701208DF80700B5E006997A
:1014C000042081F851000699002048650599069A84
:1014D0009163BDF81210069A9187BDF81210069A12
:1014E000D18706990863069988860699C886069961
:1014F00008640699486406988068B0F5004F0DD1DD
:10150000FFE706980168086820F040000860069828
:101510000168086820F480400860FFE706980068CA
:10152000006800F04000402807D0FFE706980168F7
:10153000086840F040000860FFE70698C06880BB7C
:10154000FFE7FFE70698C08F50B3FFE706980068F3
:101550008068C00778B1FFE706980068007B0699AD
:10156000896B08700699886B013088630699C88F6B
:101570000138C88713E0FFF7F3F80299401A03997E
:10158000884204D3FFE70398013018B9FFE70398B6
:1015900020B9FFE703208DF8070046E0FFE7D1E719
:1015A0002FE0FFE70698C08F50B3FFE7069800686A
:1015B0008068C00778B1FFE706980068C0680699A0
:1015C000896B08800699886B023088630699C88FFA
:1015D0000138C88713E0FFF7C3F80299401A03994E
:1015E000884204D3FFE70398013018B9FFE7039856
:1015F00020B9FFE703208DF8070016E0FFE7D1E7E9
:10160000FFE706980399029A01F022FA20B1FFE75A
:10161000069920204865FFE70698406D20B1FFE756
:1016200001208DF80700FFE7FFE70699012081F808
:101630005100FFE70699002081F85000FFE79DF870
:1016400007008DF81F00FFE79DF81F0008B080BD60
:1016500080B588B006900591ADF812200393002064
:101660008DF80700FFE7069890F85000012804D194
:10167000FFE702208DF81F0028E10699012081F87C
:101680005000FFE7FFE7FFF76BF80290BDF812008C
:10169000ADF80400069890F85100012804D0FFE747
:1016A00002208DF8070002E1059820B1FFE7BDF8A0
:1016B000120020B9FFE701208DF80700F7E0069936
:1016C000032081F851000699002048650599069A83
:1016D0001163BDF81210069A9186BDF81210069A91
:1016E000D18606998863069988870699C8870699DE
:1016F00048640699086406988068B0F5004F0DD1DB
:10170000FFE706980168086820F040000860069826
:101710000168086840F480400860FFE706980068A8
:10172000006800F04000402807D0FFE706980168F5
:10173000086840F040000860FFE70698C068B0F510
:10174000006F47D1FFE70698406828B1FFE7BDF872
:10175000040001280ED1FFE706980168006B00889D
:10176000C8600699086B023008630699C88E013874
:10177000C886FFE7FFE70698C08E50B3FFE70698DC
:1017800000688068800700280ED5FFE7069801688A
:10179000006B0088C8600699086B023008630699E0
:1017A000C88E0138C88613E0FEF7DAFF0299401AA6
:1017B0000399884204D3FFE70398013018B9FFE783
:1017C000039820B9FFE703208DF807006FE0FFE7DB
:1017D000D1E746E00698406828B1FFE7BDF804006D
:1017E00001280ED1FFE706980168006B00780873A6
:1017F0000699086B013008630699C88E0138C886BF
:10180000FFE7FFE70698C08E50B3FFE70698006831
:101810008068800700280ED5FFE706980168006BF6
:10182000007808730699086B013008630699C88E22
:101830000138C88613E0FEF793FF0299401A039916
:10184000884204D3FFE70398013018B9FFE70398F3
:1018500020B9FFE703208DF8070028E0FFE7D1E774
:10186000FFE706980399029A01F04EF920B1FFE7CD
:10187000069920204865FFE70698806870B9FFE761
:10188000FFE70020009006980068C0680090069866
:101890000068806800900098FFE7FFE70698406DB9
:1018A00020B1FFE701208DF80700FFE7FFE7069969
:1018B000012081F85100FFE70699002081F85000CF
:1018C000FFE79DF807008DF81F00FFE79DF81F0058
:1018D00008B080BD80B58EB0DDF840C00C900B9193
:1018E0000A92ADF826300120059000208DF81300F3
:1018F000FFE70C9890F85000012804D1FFE7022080
:101900008DF8370095E10C99012081F85000FFE730
:10191000FFE7FEF725FF06900C9890F851008DF830
:101920001F000C9840680890BDF82600ADF8240010
:101930009DF81F00012812D0FFE70898B0F5827FBC
:1019400009D1FFE70C98806828B9FFE79DF81F00D0
:10195000042804D0FFE702208DF813005AE10B9809
:1019600038B1FFE70A9820B1FFE7BDF8260020B99B
:10197000FFE701208DF813004CE10C9890F851001E
:10198000042805D0FFE70C99052081F85100FFE7F6
:101990000C99002048650A990C9A9163BDF82610AD
:1019A0000C9AD187BDF826100C9A91870B990C9A46
:1019B0001163BDF826100C9AD186BDF826100C9A3A
:1019C00091860C9908640C9948640C98006800682A
:1019D00000F04000402807D0FFE70C980168086835
:1019E00040F040000860FFE70C98C068B0F5006F59
:1019F00076D1FFE70C98406828B1FFE7BDF82400D6
:101A000001280ED1FFE70C980168006B0088C860C0
:101A10000C99086B023008630C99C88E0138C8868F
:101A2000FFE7FFE70C98C18E0120029039B9FFE76C
:101A30000C98C08F002818BF01200290FFE7029881
:101A4000C00700284BD0FFE70C980068806880072B
:101A5000002818D5FFE70C98C08EA0B1FFE70598C5
:101A6000012810D1FFE70C980168006B0088C8605E
:101A70000C99086B023008630C99C88E0138C8862F
:101A800000200590FFE70C9800688068C007A8B1A7
:101A9000FFE70C98C08F88B1FFE70C980068C0681A
:101AA0000C99896B08800C99886B023088630C99BB
:101AB000C88F0138C88701200590FFE7FEF750FE68
:101AC0000699401A1099884208D3FFE71098013010
:101AD00020B1FFE703208DF813009BE0A2E778E038
:101AE0000C98406828B1FFE7BDF8240001280ED10A
:101AF000FFE70C980168006B007808730C99086B7D
:101B0000013008630C99C88E0138C886FFE7FFE7EB
:101B10000C98C18E0120019039B9FFE70C98C08F55
:101B2000002818BF01200190FFE70198C007002896
:101B30004ED0FFE70C98006880688007002818D511
:101B4000FFE70C98C08EA0B1FFE70598012810D1DF
:101B5000FFE70C980168006B007808730C99086B1C
:101B6000013008630C99C88E0138C88600200590A2
:101B7000FFE70C9800688068C007A8B1FFE70C98E1
:101B8000C08F88B1FFE70C980068C0680C99896B1A
:101B900008700C99886B013088630C99C88F0138E4
:101BA000C88701200590FFE7FEF7DAFD0699401A85
:101BB0001099884204D3FFE71098013018B9FFE765
:101BC000109820B9FFE703208DF8130022E09FE76B
:101BD000FFE70C981099069A00F096FF38B1FFE7DE
:101BE00001208DF813000C992020486512E00C9814
:101BF000806870B9FFE7FFE7002003900C98006849
:101C0000C06803900C980068806803900398FFE711
:101C1000FFE7FFE70C99012081F85100FFE70C99DD
:101C2000002081F85000FFE79DF813008DF8370081
:101C3000FFE79DF837000EB080BD000080B582B090
:101C40000190019801F01AF802B080BD81B00090B7
:101C500001B0704781B0009001B0704785B003902B
:101C60000291FFE7039890F83C00012804D1FFE7B8
:101C700002208DF813006DE00399012081F83C00EB
:101C8000FFE7FFE70399022081F83D000398006811
:101C9000406801900398006880680090019820F0E7
:101CA0007000019002980168019808430190019822
:101CB0000399096848600398006842F60041C4F23D
:101CC000010188422AD0FFE70398006843F20041EF
:101CD000C4F20101884221D0FFE703980068B0F107
:101CE000804F1BD0FFE70398006840F20041C4F228
:101CF0000001884212D0FFE70398006840F6000117
:101D0000C4F20001884209D0FFE70398006840F65A
:101D10000041C4F2000188420ED1FFE7009820F094
:101D20008000009002984168009808430090009855
:101D3000039909688860FFE70399012081F83D0055
:101D4000FFE70399002081F83C00FFE700208DF8B1
:101D50001300FFE79DF8130005B0704780B582B00F
:101D60000090009820B9FFE701208DF807003FE0C0
:101D7000009890F83D0040B9FFE70099002081F8F5
:101D80003C00009800F038F8FFE70099022081F845
:101D90003D00009951F8040B00F0DEFF009901208E
:101DA00081F84600FFE70099012081F83E00009984
:101DB00081F83F00009981F84000009981F84100C6
:101DC000FFE7FFE70099012081F84200009981F8C0
:101DD0004300009981F84400009981F84500FFE72D
:101DE0000099012081F83D0000208DF80700FFE7F1
:101DF0009DF8070002B080BD80B584B003900398C1
:101E0000006841F20001C4F20001884219D1FFE7E5
:101E1000FFE741F21C00C4F20200016841F010012A
:101E20000160006800F0100002900298FFE7362081
:101E3000019000221146FEF72FFD0198FEF722FDCA
:101E4000FFE704B080BD000083B00190019890F8D6
:101E50003D00012804D0FFE701208DF80B0059E078
:101E60000199022081F83D0001980168C86840F09E
:101E70000100C8600198006842F60041C4F2010107
:101E800088422AD0FFE70198006843F20041C4F27B
:101E90000101884221D0FFE701980068B0F1804F2E
:101EA0001BD0FFE70198006840F20041C4F2000136
:101EB000884212D0FFE70198006840F60001C4F2A2
:101EC0000001884209D0FFE70198006840F6004110
:101ED000C4F20001884212D1FFE7019800688068CF
:101EE00000F0070000900098062807D0FFE701984F
:101EF0000168086840F001000860FFE706E001980B
:101F00000168086840F001000860FFE700208DF8D4
:101F10000B00FFE79DF80B0003B0704781B0009005
:101F200001B0704780B582B00190019800680069E7
:101F300000F002010020B0EB510F28D0FFE701981C
:101F40000068C06800F002010020B0EB510F1DD006
:101F5000FFE7019801686FF0020008610199012014
:101F60000877019800688069800720B1FFE7019831
:101F7000FFF7D4FF06E0019800F012F9019800F095
:101F800013F9FFE7019900200877FFE7FFE70198C1
:101F90000068006900F004010020B0EB910F29D027
:101FA000FFE701980068C06800F004010020B0EB72
:101FB000910F1ED0FFE7019801686FF004000861DF
:101FC00001990220087701980068806910F4407F29
:101FD00004D0FFE70198FFF7A1FF06E0019800F0A9
:101FE000DFF8019800F0E0F8FFE70199002008779A
:101FF000FFE7FFE701980068006900F00801002092
:10200000B0EBD10F28D0FFE701980068C06800F05E
:1020100008010020B0EBD10F1DD0FFE70198016847
:102020006FF00800086101990420087701980068A2
:10203000C069800720B1FFE70198FFF76FFF06E056
:10204000019800F0ADF8019800F0AEF8FFE70199B3
:1020500000200877FFE7FFE701980068006900F0BB
:1020600010010020B0EB111F29D0FFE70198006894
:10207000C06800F010010020B0EB111F1ED0FFE778
:10208000019801686FF01000086101990820087735
:1020900001980068C06910F4407F04D0FFE7019800
:1020A000FFF73CFF06E0019800F07AF8019800F095
:1020B0007BF8FFE7019900200877FFE7FFE7019829
:1020C00000680069C00780B1FFE701980068C06838
:1020D000C00748B1FFE7019801686FF0010008618F
:1020E000019800F065F8FFE7FFE7019800680069D4
:1020F000C1B20020B0EBD11F13D0FFE701980068F8
:10210000C068C1B20020B0EBD11F09D0FFE7019831
:1021100001686FF0800008610198FFF797FDFFE705
:10212000FFE701980068006900F040010020B0EB73
:10213000911F14D0FFE701980068C06800F04001CB
:102140000020B0EB911F09D0FFE7019801686FF004
:1021500040000861019800F075F8FFE7FFE701987B
:102160000068006900F020010020B0EB511F14D07E
:10217000FFE701980068C06800F020010020B0EB84
:10218000511F09D0FFE7019801686FF02000086136
:102190000198FFF75FFDFFE7FFE702B080BD000099
:1021A00081B0009001B0704781B0009001B07047DD
:1021B00081B000900098006841F20001C4F2000173
:1021C00088423CD1FFE740F27401C2F200010020D6
:1021D000087040F27000C2F2000002684CF6CD4177
:1021E000CCF6CC41A2FB0132D20840F27503C2F218
:1021F00000031A70006848434FEA700049F69911CD
:10220000C1F69911884207D8FFE740F27401C2F283
:10221000000101200870FFE740F27000C2F20000E8
:102220000168013101600068282807D1FFE740F20A
:102230007001C2F2000100200860FFE7FFE701B073
:102240007047000081B0009001B07047FFE7FEE7E3
:1022500080B582B040F60000C4F2010000904FF457
:10226000007101220192FEF763FA0098019A4FF47F
:102270008061FEF75DFA0098019A4FF40061FEF765
:1022800057FA0098019A4FF48051FEF751FA02B0C4
:1022900080BD000080B586B08DF8170004919DF9CF
:1022A000170000F091FF41F60000C4F20100009019
:1022B0002021FEF725FA014600988DF80F10102115
:1022C000FEF71EFA014600988DF80E100821FEF761
:1022D00017FA014600988DF80D100421FEF710FA48
:1022E0008DF80C0000F0AAFF9DF80F008DF8080093
:1022F0009DF80E008DF809009DF80D008DF80A007C
:102300009DF80C008DF80B0000208DF80700FFE70A
:102310009DF9070003282DDCFFE700208DF806005B
:102320009DF9071002A8405C012804D1FFE70020B6
:102330008DF8060003E001208DF80600FFE7049801
:102340009DF917209DF9071001EB820140569DF978
:10235000061000F0D5FE04999DF917309DF907206D
:1023600002EB83028854FFE79DF8070001308DF8E7
:102370000700CDE706B080BD82B001908DF8031054
:1023800001208DF80200019890F90500013030B964
:10239000FFE70199042048740199087427E0019827
:1023A00090F90400013030B9FFE701990320487427
:1023B000019908741AE0019890F90100013030B9D0
:1023C000FFE7019902204874019908740DE0019813
:1023D00090F90000013030B9FFE7019901204874FD
:1023E0000199087400E0FFE7FFE7FFE7FFE70198C6
:1023F00090F90600013040B9FFE7019900204874C8
:10240000019908748DF80200FFE79DF803009DF81C
:10241000021008408DF80100019890F90200013087
:1024200020B9FFE702208DF80100FFE79DF80100C9
:1024300002B0704780B594B00020139012901190B4
:102440001090FFE741F21800C4F20200016841F069
:1024500040010160006800F040000F900F98FFE716
:10246000FFE741F21800C4F20200016841F00401E4
:102470000160006800F004000E900E98FFE7FFE78F
:1024800041F21800C4F20200016841F0100101603D
:10249000006800F010000D900D98FFE7FFE741F293
:1024A0001800C4F20200016841F0200101600068D8
:1024B00000F020000C900C98FFE740F60000C4F2FA
:1024C00001000390122101220592FEF731F90398D1
:1024D00041F60461029100220A92FEF729F9059A59
:1024E00041F20040C4F2010007904FF6FF4109910C
:1024F000FEF71EF90A983C2110911190129041F6B6
:102500000000C4F2010010A90891FDF74DFF0398E7
:10251000059A08990A9B4FF0020CCDF804C0CDF83B
:1025200040C0119212931392FDF73EFF019A039857
:10253000DDF814C008990A9BDDF808E0CDF840E00A
:10254000CDF844C012931392FDF72EFF0398059B1C
:1025500008990A9A4FF0100CCDF810C0CDF840C081
:1025600011931292032206921392FDF71DFF049A13
:1025700008990A9810920022C1F211021192129049
:1025800041F20000C4F20100FDF70EFFDDF814C0B7
:10259000069A079808990A9BDDF824E0CDF840E0F8
:1025A000CDF844C012931392FDF7FEFE0A9A0A205A
:1025B0000B901146FEF770F90B98FEF763F914B013
:1025C00080BD000080B582B040F27800C2F2000009
:1025D000019043F20001C4F2010101604FF48271E5
:1025E000416000218160C160016141614FF400726E
:1025F00082611822C2610162416281620A21C16264
:10260000FEF748FE18B1FFE7FDF782FEFFE702B0D4
:1026100080BD000080B582B000210191009140F2A0
:10262000D000C2F2000041F20002C4F200020260D7
:1026300047224260816040F2E731C16080218161C0
:10264000FFF78CFB18B1FFE7FDF762FEFFE7002004
:102650000090019040F2D000C2F200006946FFF7FE
:10266000FDFA18B1FFE7FDF753FEFFE702B080BDAA
:10267000FFE7FEE7FFE7FEE788B0079006910592C7
:10268000079800F0070004900498C0F1070005289F
:1026900003D3FFE70420019004E00498C0F1070091
:1026A0000190FFE70198039004980430062803D8AE
:1026B000FFE70020009003E0049803380090FFE754
:1026C0000098029006980399012202FA01F101395B
:1026D0000840029B984005999A40013A11400843EE
:1026E00008B0704780B5002000F002F880BD0000FF
:1026F00080B582B08DF8070000208DF80600FFE756
:102700009DF80600072828DCFFE79DF80600B0309A
:10271000C0B200F08DFC0020009000F089FC102079
:1027200000F086FC00988DF80500FFE79DF8050095
:102730007F280BDCFFE79DF8070000F0ADFCFFE70A
:102740009DF8050001308DF80500EFE7FFE79DF8E3
:10275000060001308DF80600D2E702B080BD00000F
:1027600080B584B06420FDF7DBFDAE2000F060FC96
:102770002020039000F05CFC1020019000F058FC39
:10278000B02000F055FCC82000F052FC0020029060
:1027900000F04EFC019800F04BFC402000F048FC9B
:1027A000812000F045FCFF2000F042FCA12000F059
:1027B0003FFCA62000F03CFCA82000F039FC3F20A4
:1027C00000F036FCA42000F033FCD32000F030FCF5
:1027D000029800F02DFCD52000F02AFCF02000F03B
:1027E00027FCD92000F024FC222000F021FCDA2074
:1027F00000F01EFC122000F01BFCDB2000F018FC97
:10280000039800F015FC8D2000F012FC142000F05D
:102810000FFCAF2000F00CFC04B080BD80B582B08E
:102820008DF807008DF806109DF80600B030C0B294
:1028300000F0FEFB9DF807000009103000F0F8FBE7
:102840009DF8070040F0010000F00F0000F0F0FBE1
:1028500002B080BD80B584B08DF80F008DF80E10E9
:1028600002928DF8073000208DF806008DF80500E3
:102870008DF804009DF8070001460091012804D05E
:10288000FFE7009802284ED0BFE0FFE702989DF8CE
:102890000410405C002845D0FFE702989DF8041022
:1028A000405C20388DF806009DF80F007F2809DB7A
:1028B000FFE700208DF80F009DF80E0001308DF825
:1028C0000E00FFE79DF80F009DF80E10FFF7A6FF22
:1028D00000208DF80500FFE79DF80500052816DCAF
:1028E000FFE79DF8060000EB400143F6A220C0F68A
:1028F000000000EB41009DF80510405C00F0CCFBAF
:10290000FFE79DF8050001308DF80500E4E79DF82C
:102910000F0006308DF80F009DF8040001308DF88F
:102920000400B3E771E0FFE702989DF80410405CF3
:10293000002869D0FFE702989DF80410405C203819
:102940008DF806009DF80F00792809DBFFE70020CD
:102950008DF80F009DF80E0001308DF80E00FFE796
:102960009DF80F009DF80E10FFF758FF00208DF81E
:102970000500FFE79DF80500072814DCFFE79DF838
:1029800006109DF8050000EB011143F6CA40C0F6A1
:102990000000405C00F080FBFFE79DF8050001307F
:1029A0008DF80500E6E79DF80F009DF80E10013147
:1029B000C9B2FFF733FF00208DF80500FFE79DF84F
:1029C0000500072815DCFFE79DF806109DF80500B7
:1029D00000EB011043F6CA41C0F600010844007A3A
:1029E00000F05AFBFFE79DF8050001308DF8050067
:1029F000E5E79DF80F0008308DF80F009DF8040002
:102A000001308DF804008FE7FFE704B080BD0000BF
:102A10007047000082B00190019840F20001C2F2BC
:102A200000010968C90844F6D352C1F26202A1FB51
:102A30000221890948430090FFE700BFFFE70098A3
:102A4000411E00910028F8D1FFE702B07047000056
:102A500080B586B004900391029204984068B0F566
:102A6000827F13D1FFE704988068B0F5004F06D04D
:102A7000FFE704988068B0F5806F07D1FFE70498FE
:102A80000168086820F040000860FFE7049840688B
:102A9000B0F5827F1BD1FFE704988068B0F5806FA6
:102AA00015D1FFE70498039B02996A461160012142
:102AB000002200F04BF848B1FFE70499486D40F060
:102AC0002000486503208DF8170019E014E00498F1
:102AD000039B02996A4611608021002200F036F8BB
:102AE00048B1FFE70499486D40F020004865032095
:102AF0008DF8170004E0FFE700208DF81700FFE7CE
:102B00009DF8170006B080BD80B586B00490039193
:102B100002920498039B02996A4611608021002268
:102B200000F014F848B1FFE70499486D40F0200028
:102B3000486503208DF8170003E000208DF817008A
:102B4000FFE79DF8170006B080BD000080B58AB091
:102B5000DDF830C0089007918DF81B20059305988B
:102B60000190FDF7FDFD024601980C99891A084471
:102B70000390FDF7F5FD0290039840F20001C2F2C8
:102B800000010968C1F3CB3148430490FFE708987E
:102B90000068806807990840401AB0FA80F0400940
:102BA0009DF81B1088425ED0FFE705980130002891
:102BB00058D0FFE7FDF7D4FD0299401A03998842E7
:102BC00004D2FFE70398002842D1FFE70898016884
:102BD000486820F0E000486008984068B0F5827FBF
:102BE00013D1FFE708988068B0F5004F06D0FFE7E3
:102BF00008988068B0F5806F07D1FFE708980168F2
:102C0000086820F040000860FFE70898806AB0F587
:102C1000005F0FD1FFE7FFE708980168086820F41C
:102C20000050086008980168086840F40050086087
:102C3000FFE7FFE70899012081F85100FFE70899B5
:102C4000002081F85000FFE703208DF827000EE0F8
:102C5000049818B9FFE700200390FFE704980138B3
:102C60000490FFE793E700208DF82700FFE79DF829
:102C700027000AB080BD00007047000080B582B018
:102C8000009000980138B0F1807F03D3FFE7012066
:102C9000019019E0009801384EF21401CEF20001C3
:102CA00008604FF0FF300F2100F0ECFA4EF21801EF
:102CB000CEF20001002008604EF21002CEF20002B7
:102CC000072111600190FFE7019802B080BD00006C
:102CD00080B5FDF74BFD80BD80B590B006A8009093
:102CE0002821FDF793FA009800230593049303939A
:102CF00002930193012206924FF4803107910893C9
:102D00000A9202220D920E914FF4E0110F91FDF7FD
:102D100083FF18B1FFE7FDF7FBFAFFE70F200190F3
:102D200002210291002003904FF4806204920590EA
:102D300001A8FDF7D3FD18B1FFE7FDF7E9FAFFE7BA
:102D400010B080BD7047000080B540F2D000C2F2E4
:102D50000000FFF7E7F880BD83B002900191029870
:102D600000680090029842F60041C4F201018842D6
:102D700025D0FFE7029843F20041C4F201018842E6
:102D80001DD0FFE70298B0F1804F18D0FFE70298FE
:102D900040F20041C4F20001884210D0FFE70298DF
:102DA00040F60001C4F20001884208D0FFE7029813
:102DB00040F60041C4F2000188420AD1FFE70098C2
:102DC00020F070000090019841680098084300903E
:102DD000FFE7029842F60041C4F20101884225D083
:102DE000FFE7029843F20041C4F2010188421DD07E
:102DF000FFE70298B0F1804F18D0FFE7029840F249
:102E00000041C4F20001884210D0FFE7029840F66A
:102E10000001C4F20001884208D0FFE7029840F6A2
:102E20000041C4F2000188420AD1FFE7009820F473
:102E3000407000900198C168009808430090FFE737
:102E4000009820F08000019949690843009000989B
:102E500002990860019880680299C8620198006828
:102E600002998862029842F60041C4F20101884248
:102E700008D0FFE7029843F20041C4F20101884202
:102E800005D1FFE70198006902990863FFE70299FD
:102E90000120486103B0704780B584B003908DF87D
:102EA0000B10039890F91000A8B9FFE744F2D42260
:102EB000C0F600020A200090002102230193FFF7D0
:102EC000C9FC0098019B44F22532C0F6000204219F
:102ED000FFF7C0FCFFE7039890F9100001281AD112
:102EE000FFE7039890F9110050B9FFE744F215325B
:102EF000C0F60002142006210123FFF7ABFC09E015
:102F000044F2ED22C0F600020A2000210223FFF75E
:102F1000A1FCFFE7FFE7039890F9100002281AD1FF
:102F2000FFE7039890F9110050B9FFE744F215321A
:102F3000C0F60002142006210123FFF78BFC09E0F4
:102F400044F2F722C0F600020A2000210223FFF714
:102F500081FCFFE7FFE7039890F9100003281AD1DE
:102F6000FFE7039890F9110050B9FFE744F21532DA
:102F7000C0F60002142006210123FFF76BFC09E0D4
:102F800044F20132C0F600020A2000210223FFF7BA
:102F900061FCFFE7FFE7039890F9100004281AD1BD
:102FA000FFE7039890F9110050B9FFE744F215329A
:102FB000C0F60002142006210123FFF74BFC09E0B4
:102FC00044F20B32C0F600020A2000210223FFF770
:102FD00041FCFFE7FFE79DF90B0001280AD1FFE75D
:102FE00044F2E222C0F60002142004210223FFF77B
:102FF00031FCFFE704B080BD80B582B0FFF772FB03
:1030000044F2C522C0F600020020022301931946B3
:10301000FFF720FC019B44F2BA22C0F600021E20FA
:103020000621FFF717FC02B080BD0000FFE7FEE7B6
:1030300080B586B08DF8170041F20040C4F201005F
:1030400002904FF4805100220092FDF771FB9DF831
:103050001700FDF741F9009A02984FF4804103915F
:10306000FDF766FB02984FF4006101910122049282
:10307000FDF75EFB009A01990298FDF759FB019953
:103080000298049AFDF754FB02980399049AFDF7FD
:103090004FFB06B080BD000080B586B08DF81700EC
:1030A00041F20040C4F2010002904FF4805101222D
:1030B0000492FDF73DFB9DF81700FDF70DF902980E
:1030C0004FF48041039100220092FDF731FB0298FA
:1030D000049A4FF400610191FDF72AFB009A0199CF
:1030E0000298FDF725FB01990298049AFDF720FB51
:1030F00002980399049AFDF71BFB06B080BD0000FF
:1031000081B08DF802008DF801109DF9020068B9B8
:10311000FFE79DF90100012804D1FFE701208DF8A8
:1031200003004CE000208DF8030048E09DF9020008
:10313000502809DBFFE79DF90100012804D1FFE7D2
:1031400050208DF803003AE09DF90200502808DB7A
:10315000FFE79DF9010020B9FFE700208DF803008B
:103160002DE09DF90200013048B9FFE79DF901000B
:10317000012804D1FFE701208DF803001FE09DF92D
:103180000200022808DBFFE79DF9010020B9FFE7F4
:10319000FF208DF8030012E09DF90200002808D4FA
:1031A000FFE79DF9010020B9FFE700208DF803003B
:1031B00005E09DF8020001308DF80300FFE79DF95E
:1031C000030001B07047000080B582B08DF80700A1
:1031D0009DF907000146009103282CD80099DFE8EB
:1031E00001F0020C162040F60000C4F201004FF47A
:1031F00000710022FDF79CFA1EE040F60000C4F2C8
:1032000001004FF480610022FDF792FA14E040F6CD
:103210000000C4F201004FF400610022FDF788FABB
:103220000AE040F60000C4F201004FF48051002291
:10323000FDF77EFA00E0FFE702B080BD80B5FFF742
:1032400007F880BD81B08DF803009DF903000028C8
:103250000ED4FFE79DF9031001F01F0201209040FA
:103260004A094EF20011CEF2000141F82200FFE7B8
:1032700001B070474EF60C50CEF200000068C0F36B
:103280000220704782B08DF8070000919DF9070079
:1032900000280AD4FFE7009800019DF907104EF2BC
:1032A0000042CEF2000288540BE0009800019DF825
:1032B000071001F00F014EF61452CEF200028854AE
:1032C000FFE702B07047000083B00290029800F060
:1032D000070000904EF60C51CEF2000108680190F4
:1032E00001984FF6FF02104001900198009A40EAC1
:1032F00002200022C0F2FA521043019001980860A7
:1033000003B0704780B540F60000C4F2010004210C
:103310000122FDF70DFA80BD80B540F60000C4F231
:10332000010004210022FDF703FA80BD80B540F6BC
:103330000000C4F2010010210122FDF7F9F980BD5F
:1033400080B540F60000C4F2010010210022FDF714
:10335000EFF980BD80B590B0002002900F90FDF78E
:1033600013FA4FF47A70FCF7DBFFFFF7B5FCFFF7B9
:1033700061F8FFF74FF9FFF725F9FFF73DFE40F63B
:10338000C410022100F08CFAFFF7EAF940F2D000F5
:10339000C2F20000FEF758FDFEF75AFF02980E90A9
:1033A0000D900C900B90ADF82800099008900790B4
:1033B00006908DF8170004904FF4FA60FCF7B0FF08
:1033C000FFF790F9FFE79DF828008DF80F0040F215
:1033D0007400C2F20000007850B1FFE740F27500BF
:1033E000C2F2000090F9000006A9FEF753FFFFE7C4
:1033F0009DF8171006A8FEF7BFFF8DF80E009DF888
:10340000170001460191032834D80199DFE801F043
:1034100002070C2D06A80021FFF73EFD2FE006A8AD
:103420000021FFF739FD2AE006A80121FFF734FD4E
:103430009DF8290000F1400140F21810C2F200008E
:103440000170002100918DF80D1000F077FA8DF8D1
:103450000D0000F091F800F0A3F800F079F8FFF704
:1034600041F900988DF80E0009E006A80021FFF749
:1034700013FD04E006A80021FFF70EFDFFE79DF80D
:1034800017009DF80E10884207D1FFE79DF90F0045
:103490009DF92810884203D0FFE7FFF723F9FFE7E3
:1034A0009DF80E008DF817009DF93200013018B913
:1034B000FFE7FFF717F9FFE785E7000080B582B067
:1034C0008DF807000420009000F05EFA0146009895
:1034D0008DF806109DF8061041F0F0018DF80610E9
:1034E0009DF807209DF8061011438DF806109DF8F1
:1034F000061000F071FA02B080BD000080B582B005
:10350000ADF806000420009000F03EFA0146009855
:103510008DF805109DF8051041F00F018DF805108C
:10352000BDF8061044F6D352C1F26202A1FB02219B
:1035300001F0F001A1F110029DF8051011438DF882
:1035400005109DF8051000F047FA02B080BD00009C
:1035500080B582B000F06CF88DF807009DF8070088
:1035600040F010008DF807009DF80710072000F0CC
:1035700033FA02B080BD000080B582B000F058F888
:103580008DF807009DF8070040F040008DF8070017
:103590009DF80710072000F01FFA02B080BD000060
:1035A00080B582B000F044F88DF807009DF8070060
:1035B00040F020008DF807009DF80710072000F06C
:1035C0000BFA02B080BD000080B582B0E2208DF819
:1035D0000700FFF7B5FE69464FF4FA60086040F255
:1035E0007800C2F200000DF107010DF1060201237F
:1035F000FEF770F9FFF79AFE02B080BD80B582B089
:10360000E1208DF80700FFF79BFE69464FF4FA6052
:10361000086040F27800C2F200000DF107010DF1E0
:1036200006020123FEF756F9FFF780FE02B080BDC7
:1036300080B582B0FF208DF80700FFF781FE694654
:103640004FF4FA60086040F27800C2F200000DF119
:1036500007010DF106020123FEF73CF9FFF766FEB4
:103660009DF8060002B080BD80B582B000200090B9
:1036700000F08AF9014600988DF807109DF80710B0
:1036800041F002018DF807109DF8071000F0A4F931
:1036900002B080BD80B582B00020009000F074F9C7
:1036A000014600988DF807109DF8071001F0FE0103
:1036B0008DF807109DF8071000F08EF902B080BD5C
:1036C00080B586B0FFF732FEFFF726FE002005909A
:1036D000082100F081F901203F2100F07DF902204E
:1036E00002900321019100F077F90199084600F05A
:1036F00073F90199042000F06FF90299052000F098
:103700006BF906200721039100F066F903987E21EA
:1037100000F062F905991120049000F05DF9059917
:10372000049800F059F90599122000F055F905990F
:10373000132000F051F90599142000F04DF9059976
:10374000152000F049F90599162000F045F9049973
:10375000172000F041F905991C2000F03DF905996A
:103760001D2000F039F9FFF72FFFFFF747FF06B0E4
:1037700080BD000080B582B08DF807009DF807007D
:103780000238C1B2032000F027F902B080BD00006A
:1037900080B582B08DF80700002000F0F5F88DF8B4
:1037A00006009DF8070001460091012804D0FFE7BC
:1037B0000098022807D00DE09DF8060000F0FB00FD
:1037C0008DF8060006E09DF8060040F004008DF834
:1037D0000600FFE79DF80610002000F0FDF802B09B
:1037E00080BD000080B582B08DF80700062000F093
:1037F000CBF800F0D7008DF806009DF807000146D1
:10380000009140B1FFE70098012805D0FFE700983C
:10381000022808D00EE00DE09DF8060040F00800F8
:103820008DF8060006E09DF8060040F020008DF8B7
:103830000600FFE79DF80610062000F0CDF802B064
:1038400080BD000080B582B0ADF80600BDF806006E
:10385000A0F51660ADF804009DF80410052000F0F6
:10386000BBF802B080BD000080B582B08DF80700C3
:103870000620009000F088F80146009801F0F90158
:103880008DF806109DF807209DF8061041EA4201C8
:103890008DF806109DF8061000F09EF802B080BD6D
:1038A00080B588B0ADF81E008DF81D10FFF708FF39
:1038B000FFF7F0FEFFF7D8FEBDF81E00FFF7C2FFCE
:1038C0009DF81D00FFF78EFF02200090FFF7CCFF50
:1038D0000098FFF75DFF05200290FFF74BFF02986D
:1038E000FFF7ECFD4FF4FA70FFF708FEFFF70AFD53
:1038F000029A30208DF81C0043F23100C3F23000F0
:103900000690E7208DF814004FF0E73004900A206D
:1039100006A9019100F090F80199029A8DF80F0024
:103920000B2000F089F80199029A8DF80F00102001
:1039300000F082F88DF80F0008B080BD80B586B029
:103940000590A0208DF81300FFF7FAFC69464FF4AC
:10395000FA600290086040F27800C2F20000039022
:103960000DF113010DF112020123FDF7B3FF029BCC
:10397000039805992022FDF76BFEFFF7D7FC9DF811
:10398000120006B080BD000080B586B08DF817002B
:103990009DF817008DF81600FFF7D2FC69464FF42A
:1039A000FA600390086040F27800C2F200000490D0
:1039B0000DF116010DF1150201230293FDF78AFFA7
:1039C000029A039B049805A9FDF72AFDFFF7AEFCB8
:1039D0009DF8140006B080BD80B586B08DF8170044
:1039E0008DF816109DF8170040F020008DF8150096
:1039F0009DF816008DF81300FFF7A2FC69464FF4FE
:103A0000FA600290086040F27800C2F20000039071
:103A10000DF1150105AA01230193FDF75BFF019A42
:103A2000029B03980DF11301FDF712FEFFF77EFCD8
:103A30009DF8130006B080BD80B586B08DF81700E4
:103A400004918DF80F209DF8170040F020008DF8AC
:103A50000E00FFF775FC69464FF4FA6001900860AC
:103A600040F27800C2F2000002900DF10E010DF15B
:103A70000D020123FDF72EFF019B029804999DF88A
:103A80000F20FDF7E5FDFFF751FC9DF80D0006B096
:103A900080BD0000000000000000010203040607D2
:103AA00008090000000000000000002F00000000D6
:103AB0000700070000147F147F1400242A7F2A12B5
:103AC00000626408132300364955225000000503A4
:103AD000000000001C224100000041221C000014D4
:103AE000083E08140008083E0808000000A0600016
:103AF00000080808080800006060000000201008A6
:103B00000402003E5149453E0000427F4000004211
:103B100061514946002141454B31001814127F1074
:103B2000002745454539003C4A49493000017109A3
:103B3000050300364949493600064949291E000057
:103B400036360000000056360000000814224100FE
:103B5000001414141414000041221408000201512E
:103B6000090600324959513E007C1211127C007F37
:103B700049494936003E41414122007F4141221CD2
:103B8000007F49494941007F09090901003E414937
:103B9000497A007F0808087F0000417F410000202B
:103BA00040413F01007F08142241007F40404040D7
:103BB000007F020C027F007F0408107F003E41411D
:103BC000413E007F09090906003E4151215E007F08
:103BD000091929460046494949310001017F01017F
:103BE000003F4040403F001F2040201F003F403822
:103BF000403F006314081463000708700807006161
:103C00005149454300007F41410000552A552A553E
:103C1000000041417F0000040201020400404040D6
:103C20004040000001020400002054545478007FFA
:103C30004844443800384444442000384444487FD1
:103C400000385454541800087E0901020018A4A436
:103C5000A47C007F080404780000447D40000040FC
:103C600080847D00007F102844000000417F4000D8
:103C7000007C04180478007C08040478003844446C
:103C8000443800FC242424180018242418FC007C48
:103C90000804040800485454542000043F444020C1
:103CA000003C4040207C001C2040201C003C403058
:103CB000403C004428102844001CA0A0A07C0044E4
:103CC00064544C4414141414141400000000000034
:103CD00000000000000000000000000000F80000EC
:103CE0000000000000333000000000100C06100C33
:103CF0000600000000000000000040C07840C078CE
:103D00004000043F04043F040400007088FC0830B5
:103D10000000001820FF211E0000F008F000E0184D
:103D2000000000211C031E211E0000F00888700006
:103D300000001E2123241927211010160E00000058
:103D400000000000000000000000000000E0180477
:103D50000200000000071820400000020418E000E4
:103D600000000040201807000000404080F0804024
:103D700040000202010F01020200000000F00000FA
:103D800000000101011F010101000000000000000E
:103D9000000080B070000000000000000000000083
:103DA000000000010101010101010000000000000C
:103DB00000000030300000000000000000008060C3
:103DC0001804006018060100000000E01008081048
:103DD000E000000F102020100F00001010F800006D
:103DE00000000020203F2020000000700808088804
:103DF00070000030282422213000003008888848D4
:103E000030000018202020110E000000C02010F803
:103E1000000000070424243F240000F808888808D4
:103E200008000019212020110E0000E010888818D9
:103E30000000000F112020110E0000380808C838BB
:103E400008000000003F000000000070880808889B
:103E50007000001C222121221C0000E01008081024
:103E6000E0000000312222110F00000000C0C0005D
:103E70000000000000303000000000000080000062
:103E80000000000080600000000000008040201062
:103E9000080000010204081020004040404040405B
:103EA00040000404040404040400000810204080BE
:103EB00000000020100804020100007048080808F3
:103EC000F0000000003036010000C030C828E810C3
:103ED000E0000718272423140B000000C038E0007E
:103EE0000000203C23020227382008F888888870C8
:103EF0000000203F202020110E00C03008080808D4
:103F00003800071820202010080008F808080810BA
:103F1000E000203F202020100F0008F88888E808E3
:103F20001000203F20202320180008F88888E80887
:103F30001000203F200003000000C03008080838AF
:103F4000000007182020221E020008F808000008C0
:103F5000F808203F210101213F20000808F8080847
:103F600000000020203F2020000000000808F80882
:103F70000800C08080807F00000008F888C02818F2
:103F80000800203F20012638200008F80800000023
:103F90000000203F20202020300008F8F800F8F82A
:103FA0000800203F003F003F200008F830C0000814
:103FB000F808203F200007183F00E010080808100C
:103FC000E0000F10202020100F0008F80808080853
:103FD000F000203F210101010000E0100808081056
:103FE000E0000F18242438504F0008F8888888888B
:103FF0007000203F2000030C302000708808080863
:1040000038000038202121221C00180808F8080870
:1040100018000000203F2000000008F808000008F9
:10402000F808001F202020201F000878880000C802
:104030003808000007380E010000F80800F80008F2
:10404000F800033C0700073C0300081868808068FC
:10405000180820302C03032C30200838C800C8383A
:1040600008000000203F2000000010080808C838A1
:1040700008002038262120201800000000FE02023F
:1040800002000000007F40404000000C30C00000F3
:104090000000000000010638C00000020202FE001D
:1040A0000000004040407F000000000004020202C7
:1040B00004000000000000000000000000000000FC
:1040C00000008080808080808080000202040000E8
:1040D00000000000000000000000000080808080E0
:1040E00000000019242222223F2008F800808000CE
:1040F0000000003F112020110E0000000080808091
:104100000000000E11202020110000000080808897
:10411000F800000E112020103F20000080808080D9
:104120000000001F222222221300008080F08888D5
:1041300088180020203F2020000000008080808020
:104140008000006B94949493600008F80080808055
:104150000000203F210000203F20008098980000B0
:1041600000000020203F20200000000000809898E0
:10417000000000C08080807F000008F80000808080
:104180008000203F24022D302000000808F80000A5
:1041900000000020203F2020000080808080808060
:1041A0008000203F20003F20003F808000808080F2
:1041B0000000203F210000203F2000008080808000
:1041C0000000001F202020201F0080800080800031
:1041D000000080FFA12020110E00000000808080E0
:1041E0008000000E112020A0FF8080808000808051
:1041F000800020203F21200001000000808080807E
:1042000080000033242424241900008080E0808072
:1042100000000000001F20200000808000000080BF
:104220008000001F202020103F2080808000008020
:10423000808000010E300806010080800080008030
:1042400080800F300C030C300F00008080008080D5
:1042500080000020312E0E31200080808000008000
:10426000808080818E7018060100008080808080B0
:1042700080000021302C2221300000000000807CD2
:10428000020200000000003F404000000000FF006C
:10429000000000000000FF0000000002027C80001F
:1042A00000000040403F0000000000060101020243
:1042B0000404000000000000000020566572203158
:1042C0002E322020002049436C69636B6572205AAE
:1042D0004A552000506C6561736520696E70757475
:1042E000200053454E44494E472E2E2E00416E73FA
:1042F0007765723A204100416E737765723A2042C9
:1043000000416E737765723A204300416E737765A2
:10431000723A20440053454E44205355434345537D
:104320005346554C00796F757220616E73776572D4
:1043300000000000584300080000002010000000AA
:104340006C010008684300081000002030070000DE
:1043500088010008000000000024F40001000000B3
:08436000100000000000000045
:0400000508000131BD
:00000001FF
